{
    "_format": "hh-sol-artifact-1",
    "contractName": "CarbonCreditContract",
    "sourceName": "contracts/CarbonCreditContract.sol",
    "abi": [
        {
            "inputs": [
                {
                    "internalType": "uint256",
                    "name": "_carbonCreditPrice",
                    "type": "uint256"
                }
            ],
            "stateMutability": "nonpayable",
            "type": "constructor"
        },
        {
            "anonymous": false,
            "inputs": [
                {
                    "indexed": true,
                    "internalType": "address",
                    "name": "buyer",
                    "type": "address"
                },
                {
                    "indexed": false,
                    "internalType": "uint256",
                    "name": "creditsBought",
                    "type": "uint256"
                },
                {
                    "indexed": false,
                    "internalType": "uint256",
                    "name": "amountPaid",
                    "type": "uint256"
                },
                {
                    "indexed": false,
                    "internalType": "uint256",
                    "name": "timestamp",
                    "type": "uint256"
                }
            ],
            "name": "CarbonCreditPurchased",
            "type": "event"
        },
        {
            "inputs": [
                {
                    "internalType": "uint256",
                    "name": "_creditsToBuy",
                    "type": "uint256"
                }
            ],
            "name": "buyCarbonCredits",
            "outputs": [],
            "stateMutability": "payable",
            "type": "function"
        },
        {
            "inputs": [],
            "name": "carbonCreditPrice",
            "outputs": [
                {
                    "internalType": "uint256",
                    "name": "",
                    "type": "uint256"
                }
            ],
            "stateMutability": "view",
            "type": "function"
        },
        {
            "inputs": [],
            "name": "checkCreditBalance",
            "outputs": [
                {
                    "internalType": "uint256",
                    "name": "",
                    "type": "uint256"
                }
            ],
            "stateMutability": "view",
            "type": "function"
        },
        {
            "inputs": [
                {
                    "internalType": "address",
                    "name": "",
                    "type": "address"
                }
            ],
            "name": "creditBalances",
            "outputs": [
                {
                    "internalType": "uint256",
                    "name": "",
                    "type": "uint256"
                }
            ],
            "stateMutability": "view",
            "type": "function"
        },
        {
            "inputs": [
                {
                    "internalType": "uint256",
                    "name": "index",
                    "type": "uint256"
                }
            ],
            "name": "getPurchase",
            "outputs": [
                {
                    "internalType": "address",
                    "name": "",
                    "type": "address"
                },
                {
                    "internalType": "uint256",
                    "name": "",
                    "type": "uint256"
                },
                {
                    "internalType": "uint256",
                    "name": "",
                    "type": "uint256"
                },
                {
                    "internalType": "uint256",
                    "name": "",
                    "type": "uint256"
                }
            ],
            "stateMutability": "view",
            "type": "function"
        },
        {
            "inputs": [],
            "name": "getTotalPurchases",
            "outputs": [
                {
                    "internalType": "uint256",
                    "name": "",
                    "type": "uint256"
                }
            ],
            "stateMutability": "view",
            "type": "function"
        },
        {
            "inputs": [],
            "name": "owner",
            "outputs": [
                {
                    "internalType": "address",
                    "name": "",
                    "type": "address"
                }
            ],
            "stateMutability": "view",
            "type": "function"
        },
        {
            "inputs": [],
            "name": "purchaseIndex",
            "outputs": [
                {
                    "internalType": "uint256",
                    "name": "",
                    "type": "uint256"
                }
            ],
            "stateMutability": "view",
            "type": "function"
        },
        {
            "inputs": [
                {
                    "internalType": "uint256",
                    "name": "",
                    "type": "uint256"
                }
            ],
            "name": "purchases",
            "outputs": [
                {
                    "internalType": "address",
                    "name": "buyer",
                    "type": "address"
                },
                {
                    "internalType": "uint256",
                    "name": "creditsBought",
                    "type": "uint256"
                },
                {
                    "internalType": "uint256",
                    "name": "amountPaid",
                    "type": "uint256"
                },
                {
                    "internalType": "uint256",
                    "name": "timestamp",
                    "type": "uint256"
                }
            ],
            "stateMutability": "view",
            "type": "function"
        },
        {
            "inputs": [
                {
                    "internalType": "uint256",
                    "name": "_newPrice",
                    "type": "uint256"
                }
            ],
            "name": "setCarbonCreditPrice",
            "outputs": [],
            "stateMutability": "nonpayable",
            "type": "function"
        },
        {
            "inputs": [],
            "name": "withdrawEther",
            "outputs": [],
            "stateMutability": "nonpayable",
            "type": "function"
        }
    ],
    "bytecode": "0x608060405234801561001057600080fd5b50604051610ed0380380610ed08339818101604052810190610032919061009c565b336000806101000a81548173ffffffffffffffffffffffffffffffffffffffff021916908373ffffffffffffffffffffffffffffffffffffffff160217905550806001819055506000600381905550506100e6565b600081519050610096816100cf565b92915050565b6000602082840312156100ae57600080fd5b60006100bc84828501610087565b91505092915050565b6000819050919050565b6100d8816100c5565b81146100e357600080fd5b50565b610ddb806100f56000396000f3fe60806040526004361061009c5760003560e01c80638392fe31116100645780638392fe31146101895780638846ac51146101c95780638da5cb5b146101f4578063c5666a051461021f578063d1a73e711461023b578063ea04f155146102665761009c565b80633742a9f7146100a15780635a8c7633146100e15780636009a2d81461010a57806365177f85146101475780637362377b14610172575b600080fd5b3480156100ad57600080fd5b506100c860048036038101906100c391906108dd565b610291565b6040516100d89493929190610acb565b60405180910390f35b3480156100ed57600080fd5b50610108600480360381019061010391906108dd565b6103cd565b005b34801561011657600080fd5b50610131600480360381019061012c91906108b4565b610465565b60405161013e9190610bb0565b60405180910390f35b34801561015357600080fd5b5061015c61047d565b6040516101699190610bb0565b60405180910390f35b34801561017e57600080fd5b506101876104c4565b005b34801561019557600080fd5b506101b060048036038101906101ab91906108dd565b6105bb565b6040516101c09493929190610acb565b60405180910390f35b3480156101d557600080fd5b506101de61061b565b6040516101eb9190610bb0565b60405180910390f35b34801561020057600080fd5b50610209610621565b6040516102169190610ab0565b60405180910390f35b610239600480360381019061023491906108dd565b610645565b005b34801561024757600080fd5b50610250610877565b60405161025d9190610bb0565b60405180910390f35b34801561027257600080fd5b5061027b61087d565b6040516102889190610bb0565b60405180910390f35b60008060008060028054905085106102de576040517f08c379a00000000000000000000000000000000000000000000000000000000081526004016102d590610b10565b60405180910390fd5b60006002868154811061031a577f4e487b7100000000000000000000000000000000000000000000000000000000600052603260045260246000fd5b90600052602060002090600402016040518060800160405290816000820160009054906101000a900473ffffffffffffffffffffffffffffffffffffffff1673ffffffffffffffffffffffffffffffffffffffff1673ffffffffffffffffffffffffffffffffffffffff1681526020016001820154815260200160028201548152602001600382015481525050905080600001518160200151826040015183606001519450945094509450509193509193565b60008054906101000a900473ffffffffffffffffffffffffffffffffffffffff1673ffffffffffffffffffffffffffffffffffffffff163373ffffffffffffffffffffffffffffffffffffffff161461045b576040517f08c379a000000000000000000000000000000000000000000000000000000000815260040161045290610b30565b60405180910390fd5b8060018190555050565b60046020528060005260406000206000915090505481565b6000600460003373ffffffffffffffffffffffffffffffffffffffff1673ffffffffffffffffffffffffffffffffffffffff16815260200190815260200160002054905090565b60008054906101000a900473ffffffffffffffffffffffffffffffffffffffff1673ffffffffffffffffffffffffffffffffffffffff163373ffffffffffffffffffffffffffffffffffffffff1614610552576040517f08c379a000000000000000000000000000000000000000000000000000000000815260040161054990610b50565b60405180910390fd5b60008054906101000a900473ffffffffffffffffffffffffffffffffffffffff1673ffffffffffffffffffffffffffffffffffffffff166108fc479081150290604051600060405180830381858888f193505050501580156105b8573d6000803e3d6000fd5b50565b600281815481106105cb57600080fd5b90600052602060002090600402016000915090508060000160009054906101000a900473ffffffffffffffffffffffffffffffffffffffff16908060010154908060020154908060030154905084565b60015481565b60008054906101000a900473ffffffffffffffffffffffffffffffffffffffff1681565b60008111610688576040517f08c379a000000000000000000000000000000000000000000000000000000000815260040161067f90610b70565b60405180910390fd5b600154816106969190610c69565b3410156106d8576040517f08c379a00000000000000000000000000000000000000000000000000000000081526004016106cf90610b90565b60405180910390fd5b6000600154826106e89190610c69565b9050600260405180608001604052803373ffffffffffffffffffffffffffffffffffffffff16815260200184815260200183815260200142815250908060018154018082558091505060019003906000526020600020906004020160009091909190915060008201518160000160006101000a81548173ffffffffffffffffffffffffffffffffffffffff021916908373ffffffffffffffffffffffffffffffffffffffff1602179055506020820151816001015560408201518160020155606082015181600301555050600360008154809291906107c690610cff565b919050555081600460003373ffffffffffffffffffffffffffffffffffffffff1673ffffffffffffffffffffffffffffffffffffffff168152602001908152602001600020600082825461081a9190610c13565b925050819055503373ffffffffffffffffffffffffffffffffffffffff167f1e9958610c14fa462b5ec851890b254abe93e35b8b2c4e08e0c0bd5ec015b3d783834260405161086b93929190610bcb565b60405180910390a25050565b60035481565b6000600280549050905090565b60008135905061089981610d77565b92915050565b6000813590506108ae81610d8e565b92915050565b6000602082840312156108c657600080fd5b60006108d48482850161088a565b91505092915050565b6000602082840312156108ef57600080fd5b60006108fd8482850161089f565b91505092915050565b61090f81610cc3565b82525050565b6000610922601683610c02565b91507f496e76616c696420707572636861736520696e646578000000000000000000006000830152602082019050919050565b6000610962602183610c02565b91507f4f6e6c7920636f6e7472616374206f776e65722063616e20736574207072696360008301527f65000000000000000000000000000000000000000000000000000000000000006020830152604082019050919050565b60006109c8602083610c02565b91507f4f6e6c7920636f6e7472616374206f776e65722063616e2077697468647261776000830152602082019050919050565b6000610a08603283610c02565b91507f4e756d626572206f66206372656469747320746f20627579206d75737420626560008301527f2067726561746572207468616e207a65726f00000000000000000000000000006020830152604082019050919050565b6000610a6e601783610c02565b91507f496e73756666696369656e742066756e64732073656e740000000000000000006000830152602082019050919050565b610aaa81610cf5565b82525050565b6000602082019050610ac56000830184610906565b92915050565b6000608082019050610ae06000830187610906565b610aed6020830186610aa1565b610afa6040830185610aa1565b610b076060830184610aa1565b95945050505050565b60006020820190508181036000830152610b2981610915565b9050919050565b60006020820190508181036000830152610b4981610955565b9050919050565b60006020820190508181036000830152610b69816109bb565b9050919050565b60006020820190508181036000830152610b89816109fb565b9050919050565b60006020820190508181036000830152610ba981610a61565b9050919050565b6000602082019050610bc56000830184610aa1565b92915050565b6000606082019050610be06000830186610aa1565b610bed6020830185610aa1565b610bfa6040830184610aa1565b949350505050565b600082825260208201905092915050565b6000610c1e82610cf5565b9150610c2983610cf5565b9250827fffffffffffffffffffffffffffffffffffffffffffffffffffffffffffffffff03821115610c5e57610c5d610d48565b5b828201905092915050565b6000610c7482610cf5565b9150610c7f83610cf5565b9250817fffffffffffffffffffffffffffffffffffffffffffffffffffffffffffffffff0483118215151615610cb857610cb7610d48565b5b828202905092915050565b6000610cce82610cd5565b9050919050565b600073ffffffffffffffffffffffffffffffffffffffff82169050919050565b6000819050919050565b6000610d0a82610cf5565b91507fffffffffffffffffffffffffffffffffffffffffffffffffffffffffffffffff821415610d3d57610d3c610d48565b5b600182019050919050565b7f4e487b7100000000000000000000000000000000000000000000000000000000600052601160045260246000fd5b610d8081610cc3565b8114610d8b57600080fd5b50565b610d9781610cf5565b8114610da257600080fd5b5056fea26469706673582212203ff15aca380060018f10454ea6b2bae6d3f0200b363516ecf982fb7dc551495564736f6c63430008000033",
    "linkReferences": {},
    "deployedLinkReferences": {}
}